:100000000C9462000C948A000C948A000C948A0070
:100010000C948A000C948A000C948A000C948A0038
:100020000C948A000C948A000C948A000C948A0028
:100030000C948A000C948A000C948A000C948A0018
:100040000C9421050C948A000C9491050C946B057A
:100050000C948A000C948A000C948A000C948A00F8
:100060000C94C3050C948A000000000024002700B3
:100070002A000000000023002600290000000000E4
:10008000250028002B0004040404040404040202D4
:100090000202020203030303030301020408102007
:1000A0004080010204081020010204081020000012
:1000B0000008000201000003040700000000000027
:1000C0000000F10611241FBECFEFD8E0DEBFCDBF88
:1000D00011E0A0E0B1E0EEE7F2E102C005900D9280
:1000E000AE32B107D9F722E0AEE2B1E001C01D9215
:1000F000A23BB207E1F710E0C2E6D0E004C02197CE
:10010000FE010E943209C136D107C9F70E942D07AE
:100110000C943D090C940000282F3091F9013132E4
:1001200008F04AC08091D5018111FCCF9091F8016F
:1001300042E04093D5012093D4012FEF2093D301C7
:100140001092D2013093D101E8EDF1E0A1EBB1E0E2
:1001500020E0321721F041914D932F5FFACF10929A
:10016000B0012091B001990F922B9093B001909122
:10017000AF01913061F41092AF019091B001909372
:10018000BB009091BC0093FDF8CF95EC01C095EEBB
:100190009093BC009091D5019230E1F39091D301FE
:1001A0009F3F79F08091D301803241F08091D3015B
:1001B000803331F084E005C081E003C082E001C0FB
:1001C00083E01092D7011092F9011092D6010895A0
:1001D000833081F028F4813099F08230A1F00895C5
:1001E0008730A9F08830B9F08430D1F48091800054
:1001F0008F7D03C0809180008F7780938000089569
:1002000084B58F7702C084B58F7D84BD08958091B9
:10021000B0008F7703C08091B0008F7D8093B000D5
:1002200008951F93CF93DF93282F30E0F901E25513
:10023000FF4F8491F901E656FF4FD491F901EA5737
:10024000FF4FC491CC23C1F0162F81110E94E8000A
:10025000EC2FF0E0EE0FFF1FE458FF4FA591B49193
:100260009FB7F894111104C08C91D095D82302C087
:10027000EC91DE2BDC939FBFDF91CF911F9108950E
:1002800008950895CF92DF92EF92FF920F931F93FC
:10029000CF93DF936C017A018B01C0E0D0E0CE15E3
:1002A000DF0581F0D8016D918D01D601ED91FC91B2
:1002B0000190F081E02DC6010995892B11F021965E
:1002C000EECF7E01C701DF91CF911F910F91FF907B
:1002D000EF90DF90CF900895FC01538D448D252F32
:1002E00030E0842F90E0821B930B541710F0CF96D0
:1002F000089501970895FC01918D828D981761F002
:10030000828DDF01A80FB11D5D968C91928D9F5F4C
:100310009F73928F90E008958FEF9FEF0895FC01F7
:10032000918D828D981731F0828DE80FF11D858DAA
:1003300090E008958FEF9FEF0895FC01918D228D3D
:10034000892F90E0805C9F4F821B91098F739927C2
:1003500008958AEF91E00E949D0121E0892B09F424
:1003600020E0822F0895FC01848DDF01A80FB11DCC
:10037000A35ABF4F2C91848D90E001968F739927DB
:10038000848FA689B7892C93A089B1898C918370B9
:1003900080648C93938D848D981306C00288F389B2
:1003A000E02D80818F7D80830895EF92FF920F93DF
:1003B0001F93CF93DF93EC0181E0888F9B8D8C8D11
:1003C000981305C0E889F989808185FD26C0F62E3D
:1003D0000B8D10E00F5F1F4F0F731127E02E8C8DD8
:1003E000E8120CC00FB607FCFACFE889F9898081C2
:1003F00085FFF5CFCE010E94B301F1CF8B8DFE01B9
:10040000E80FF11DE35AFF4FF0829FB7F8940B8F6E
:10041000EA89FB89808180620AC09FB7F894EE89DF
:10042000FF896083E889F989808183708064808393
:100430009FBF81E090E0DF91CF911F910F91FF90DE
:10044000EF900895CF93DF93EC01888D8823C9F056
:10045000EA89FB89808185FD05C0A889B9898C91CD
:1004600086FD0FC00FB607FCF5CF808185FFF2CF68
:10047000A889B9898C9185FFEDCFCE010E94B30187
:10048000E7CFDF91CF91089580E090E0892B29F0AC
:100490000E94A90181110C940000089585ED8093BC
:1004A000BC008091BC0084FDFCCF1092D501089562
:1004B00040916E01262F30E0240F311D213231058D
:1004C000DCF42091D5012430C9F4FC0180E090E0F7
:1004D000861758F430916E012191DC01A25BBE4F6A
:1004E000A30FB11D2C930196F3CF80916E01680F7D
:1004F00060936E0180E0089581E0089582E00895A0
:100500000895E091960180919501E81730F4F0E0AC
:10051000E25DFE4F808190E008958FEF9FEF089598
:100520009091960180919501981750F4E92FF0E091
:10053000E25DFE4F208130E09F5F9093960102C004
:100540002FEF3FEFC90108958091950190E0209130
:100550009601821B91090895CF92DF92EF92FF924C
:100560000F931F93CF93DF937C01CB018A012091DE
:10057000D601222389F0EB016B01C40ED51ECC15E8
:10058000DD0569F06991D701ED91FC910190F08151
:10059000E02DC7010995F3CF642F0E945802C801CE
:1005A000DF91CF911F910F91FF90EF90DF90CF904F
:1005B0000895CF93DF931F92CDB7DEB76983209163
:1005C000D6012223D1F02091F901203240F021E020
:1005D00030E0FC013383228380E090E015C08091FD
:1005E000D701E82FF0E0E852FE4F998190838F5FAA
:1005F0008093D7018093F90105C061E0CE01019697
:100600000E94580281E090E00F90DF91CF91089511
:10061000CF93DF93EA0191E09093D6018093F801A4
:100620001092D7011092F90187E992E00E94D90255
:10063000688187E992E00E94D90281E00E948C00E3
:1006400091E0811190E0892FDF91CF910895089575
:1006500080E090E00895009769F0FC01019000208F
:10066000E9F73197AF01481B590BBC018AEF91E0C4
:100670000C94420180E090E008958F929F92AF9297
:10068000BF92CF92DF92EF92FF920F931F93CF937F
:10069000DF93CDB7DEB7A1970FB6F894DEBF0FBEDC
:1006A000CDBF6C01990FEE08FF08F7FE2BC06DE27D
:1006B0008AEF91E00E94D5018C0122273327A901FE
:1006C0002C193D094E095F0919A2CE0181967C01C2
:1006D0009AE0892E912CA12CB12CCA01B901A50157
:1006E00094010E941009605DF70162937F0121155A
:1006F00031054105510589F7CF010E942B03800F79
:10070000911F1DC0A701960119A28E010F5D1F4FF9
:100710008AE0C82ED12CE12CF12CCA01B901A70125
:1007200096010E941009605DF80162938F01211506
:1007300031054105510589F7CF010E942B03A19690
:100740000FB6F894DEBF0FBECDBFDF91CF911F91E2
:100750000F91FF90EF90DF90CF90BF90AF909F9060
:100760008F9008952F923F924F925F926F927F9257
:100770008F929F92AF92BF92CF92DF92EF92FF92B1
:100780000F931F93CF93DF93CDB7DEB727970FB6A5
:10079000F894DEBF0FBECDBF782E662E4E83690162
:1007A0008FB7F8948090AB019090AC01A090AD0110
:1007B000B090AE018FBF272D220F2B83E12C1F821B
:1007C000FF24F3949E81892F90E09D838C831801F0
:1007D000412C512CEE81EE1608F088C0F092D60123
:1007E0007092F8011092D7011092F901662D87E9F5
:1007F00092E00E94D90281E00E948C00F092D60122
:100800001092D7011092F9018091D5018111FCCF8E
:100810008C819D818E1991098132910514F080E2BD
:1008200090E0813208F080E2F092D501F092D4019C
:10083000FFEFF093D3011092D2019FEF980F9093A6
:10084000D101F092B0019091B0012B81922B909345
:10085000B0019091AF01913071F41092AF0190917D
:10086000B0019093BB009091BC0093FDF8CF45EC94
:100870004093BC0003C095EE9093BC009091D501CD
:100880009130E1F39091D201981710F48091D20148
:10089000E1EBF1E0AEE2B1E090E0981721F02191B8
:1008A0002D939F5FFACF10929601909395019091AE
:1008B000950180919601981709F451C00115110511
:1008C000D9F12FB7F8948091AB019091AC01A09130
:1008D000AD01B091AE012FBF88199909AA09BB09D2
:1008E00082159305A405B50538F139C00115110528
:1008F000E1F12FB7F8948091AB019091AC01A091F8
:10090000AD01B091AE012FBF88199909AA09BB09A1
:1009100020E030E080179107A207B30730F1EE81A5
:100920002E2F30E0FF818F2FFF0F990B8217930737
:10093000E4F42FEF2F8319C0C601EF818E0F911DB4
:10094000E7FD9A959A83898387E992E00E94900255
:10095000E981FA818083FF81FF5FFF83A8CF8E81C9
:10096000813208F080E2E80E35CF8F8127960FB6EE
:10097000F894DEBF0FBECDBFDF91CF911F910F91D5
:10098000FF90EF90DF90CF90BF90AF909F908F90AF
:100990007F906F905F904F903F902F900895BF92FF
:1009A000CF92DF92EF92FF920F931F93CF93DF933B
:1009B00000D0CDB7DEB7F82EE62EC42EB22ED02E44
:1009C00008EE13E09E012E5F3F4F41E00E94B2030C
:1009D000882341F14C2D50E04B1951094F5F5F4F77
:1009E00081E090E002C0880F991FBA94E2F7019766
:1009F000042E01C0880F0A94EAF72D2D01C0220FA2
:100A00004A95EAF7382F30959A8193238223892BD0
:100A10008A838983AE014F5F5F4F6E2D8F2D0E94B9
:100A2000080301C080E00F900F90DF91CF911F91DC
:100A30000F91FF90EF90DF90CF90BF9008950E94AC
:100A400038091F920F920FB60F9211242F933F93E4
:100A50008F939F93AF93BF938091AB019091AC0123
:100A6000A091AD01B091AE013091AA0123E0230F16
:100A70002D3720F40196A11DB11D05C026E8230FD6
:100A80000296A11DB11D2093AA018093AB01909302
:100A9000AC01A093AD01B093AE018091A6019091FD
:100AA000A701A091A801B091A9010196A11DB11DB6
:100AB0008093A6019093A701A093A801B093A901E8
:100AC000BF91AF919F918F913F912F910F900FBE4A
:100AD0000F901F9018951F920F920FB60F9211242E
:100AE0002F933F934F935F936F937F938F939F9336
:100AF000AF93BF93EF93FF938AEF91E00E94B3010E
:100B0000FF91EF91BF91AF919F918F917F916F91E5
:100B10005F914F913F912F910F900FBE0F901F90BB
:100B200018951F920F920FB60F9211242F938F9347
:100B30009F93EF93FF93E0910A02F0910B02808163
:100B4000E0911002F091110282FD12C0908180911B
:100B500013028F5F8F7320911402821751F0E0917E
:100B60001302F0E0E650FE4F958F8093130201C010
:100B70008081FF91EF919F918F912F910F900FBEE8
:100B80000F901F9018951F920F920FB60F9211247D
:100B90002F933F934F935F936F937F938F939F9385
:100BA000AF93BF93EF93FF938091B900887F803616
:100BB00009F49CC068F5883209F45BC090F4803178
:100BC00009F454C038F4882309F4F6C0883009F4D5
:100BD0004DC0F6C0883109F44CC0803209F45DC0C4
:100BE000EFC0803409F468C048F4803309F455C07C
:100BF000883309F0E5C08093D301D8C0803509F46B
:100C00004FC0883509F45DC0883409F0D9C0D6C01A
:100C1000883909F4C7C0A8F4883709F467C038F4E4
:100C2000883609F463C0803709F460C0C9C08838C9
:100C300009F4B8C0803909F45FC0803809F0C0C039
:100C40005BC0803B09F486C038F4803A09F466C082
:100C5000883A09F47FC0B4C0803C09F4A7C0883C3E
:100C600009F4A4C0883B09F48AC0AAC08091B001ED
:100C700010C09091D2018091D101981770F5E09148
:100C8000D20181E08E0F8093D201F0E0EF54FE4F4D
:100C900080818093BB0085EC86C08093D3018EC099
:100CA000E091D20181E08E0F8093D2018091BB0050
:100CB000F0E0EF54FE4F80839091D2018091D101FA
:100CC0006EC0E091D20181E08E0F8093D2018091BD
:100CD000BB00F0E0EF54FE4F80838091D40181117E
:100CE0006DC081E08093AF0184EA61C083E08093AE
:100CF000D50110929001CFCF80919001803208F001
:100D000051C0E091900181E08E0F8093900180911D
:100D1000BB00F0E0E059FE4F8083BDCF85EC8093AF
:100D2000BC001092D50180919001803230F4E091A6
:100D30009001F0E0E059FE4F10826091900170E068
:100D4000E0919101F091920180E791E00995109274
:100D5000900136C084E08093D50110926F0110920B
:100D60006E01E0919301F0919401099580916E01DB
:100D7000811105C081E080936E0110924E01E091D7
:100D80006F0181E08E0F80936F01F0E0E25BFE4F18
:100D900080818093BB0090916F0180916E019817C4
:100DA00008F479CF85E88093BC000AC085EC809375
:100DB000BC001092D50104C01092D3010E944E02D3
:100DC000FF91EF91BF91AF919F918F917F916F9123
:100DD0005F914F913F912F910F900FBE0F901F90F9
:100DE0001895EAEFF1E01382128288EE93E0A0E01A
:100DF000B0E084839583A683B78324E031E0318318
:100E0000208325EC30E03587248724EC30E03787D9
:100E1000268720EC30E0318B208B21EC30E0338BC7
:100E2000228B22EC30E0358B248B26EC30E0378BA4
:100E3000268B118E128E138E148EE7E9F2E0138248
:100E4000128284839583A683B78386E191E09183A0
:100E5000808388E68093A3020895CF93DF9300D028
:100E6000CDB7DEB7789484B5826084BD84B58160E7
:100E700084BD85B5826085BD85B5816085BD809165
:100E80006E00816080936E001092810080918100DD
:100E900082608093810080918100816080938100D5
:100EA000809180008160809380008091B100846097
:100EB0008093B1008091B00081608093B0008091F8
:100EC0007A00846080937A0080917A0082608093B7
:100ED0007A0080917A00816080937A0080917A0014
:100EE000806880937A001092C1001092960110924F
:100EF00095011092D7011092F9011092D50181E06D
:100F00008093D4011092AF0161E082E10E9411014F
:100F100061E083E10E9411018091B9008E7F80938E
:100F2000B9008091B9008D7F8093B90088E48093E7
:100F3000B80085E48093BC0080E491E09093940134
:100F40008093930181E491E09093920180939101C9
:100F5000E0910A02F0910B0282E08083E0910602A8
:100F6000F09107021082E0910802F091090283E3F8
:100F7000808310921202E0910E02F0910F0286E03F
:100F80008083E0910C02F0910D028081806180836A
:100F9000E0910C02F0910D02808188608083E091E5
:100FA0000C02F0910D02808180688083E0910C0238
:100FB000F0910D0280818F7D808301E023E042E08B
:100FC0006BE68091A3020E94CF0400E022E044E09F
:100FD0006BE18091A3020E94CF0422E044E06CE127
:100FE0008091A3020E94CF04F090A30208EE13E0C8
:100FF0009E012E5F3F4F41E06BE68F2D0E94B203B2
:101000008A818F7B8A838983AE014F5F5F4F6BE656
:101010008F2D0E940803E7EAF0E02491E3E9F0E075
:101020008491882399F090E0880F991FFC01E8597A
:10103000FF4FA591B491FC01E458FF4F8591949125
:101040008FB7F894EC91E22BEC938FBF4DE9E42E2F
:1010500040E0F42EF701249159E8C52E50E0D52E3A
:10106000F60184918823C9F090E0880F991FFC0154
:10107000E859FF4FA591B491FC01E458FF4F459109
:1010800054913FB7F8949C91822F809598239C931C
:10109000FA019081892380833FBF91EBA92E90E0D4
:1010A000B92E99249394F5018491F7011491F601D6
:1010B00004910023A1F081110E94E800E02FF0E0EC
:1010C000EE0FFF1FEE58FF4FA591B4918C9118239E
:1010D00091E080E009F490E0692E782E02C0612C46
:1010E000712C7092A5016092A40108EE13E024EA2D
:1010F00032E04EE06BE38091A3020E94B203809144
:10110000A4029091A5029827892798279093A3017C
:101110008093A2018091A6029091A7029827892727
:1011200098279093A1018093A0018091A8029091AB
:10113000A90298278927982790939F0180939E0161
:101140008091AC029091AD029827892798279093BF
:101150009D0180939C018091AE029091AF029827EF
:101160008927982790939B0180939A018091B002E0
:101170009091B1029827892798279093990180939D
:1011800098016A94672809F048C084E291E00E94BF
:101190002B038091A2019091A3010E943D038AE25A
:1011A00091E00E942B038091A0019091A1010E94E7
:1011B0003D038AE291E00E942B0380919E01909171
:1011C0009F010E943D038AE291E00E942B038091DF
:1011D0009C0190919D010E943D038AE291E00E9452
:1011E0002B0380919A0190919B010E943D038AE21A
:1011F00091E00E942B0380919801909199010E94A7
:101200003D038CE291E00E942B03609197016925D8
:10121000609397018DE00E9411010E94440243CF28
:10122000A1E21A2EAA1BBB1BFD010DC0AA1FBB1FEA
:10123000EE1FFF1FA217B307E407F50720F0A21B5C
:10124000B30BE40BF50B661F771F881F991F1A94C9
:1012500069F760957095809590959B01AC01BD01F3
:10126000CF010895EE0FFF1F0590F491E02D099432
:0E12700081E090E0F8940C943D09F894FFCFD3
:10127E0000000000D50142016C0122029D017B019C
:10128E008F0100000000D902AC0228038002A402E4
:0E129E0090028102612F673A09002C000A00BD
:107E0000112484B714BE81FFF0D085E080938100F7
:107E100082E08093C00088E18093C10086E0809377
:107E2000C20080E18093C4008EE0C9D0259A86E02C
:107E300020E33CEF91E0309385002093840096BBD3
:107E4000B09BFECF1D9AA8958150A9F7CC24DD24C4
:107E500088248394B5E0AB2EA1E19A2EF3E0BF2EE7
:107E6000A2D0813461F49FD0082FAFD0023811F036
:107E7000013811F484E001C083E08DD089C08234E0
:107E800011F484E103C0853419F485E0A6D080C0E4
:107E9000853579F488D0E82EFF2485D0082F10E0AE
:107EA000102F00270E291F29000F111F8ED06801E7
:107EB0006FC0863521F484E090D080E0DECF843638
:107EC00009F040C070D06FD0082F6DD080E0C81688
:107ED00080E7D80618F4F601B7BEE895C0E0D1E017
:107EE00062D089930C17E1F7F0E0CF16F0E7DF06D8
:107EF00018F0F601B7BEE89568D007B600FCFDCFD4
:107F0000A601A0E0B1E02C9130E011968C91119780
:107F100090E0982F8827822B932B1296FA010C0160
:107F200087BEE89511244E5F5F4FF1E0A038BF0790
:107F300051F7F601A7BEE89507B600FCFDCF97BE46
:107F4000E89526C08437B1F42ED02DD0F82E2BD052
:107F50003CD0F601EF2C8F010F5F1F4F84911BD097
:107F6000EA94F801C1F70894C11CD11CFA94CF0C13
:107F7000D11C0EC0853739F428D08EE10CD085E9AC
:107F80000AD08FE07ACF813511F488E018D01DD067
:107F900080E101D065CF982F8091C00085FFFCCF94
:107FA0009093C60008958091C00087FFFCCF809118
:107FB000C00084FD01C0A8958091C6000895E0E648
:107FC000F0E098E1908380830895EDDF803219F02E
:107FD00088E0F5DFFFCF84E1DECF1F93182FE3DFCA
:107FE0001150E9F7F2DF1F91089580E0E8DFEE27F6
:047FF000FF270994CA
:027FFE00040479
:0400000300007E007B
:00000001FF
